{
    "_format": "hh-sol-artifact-1",
    "contractName": "NFT",
    "sourceName": "contracts/NFT.sol",
    "abi": [
        {
            "inputs": [],
            "stateMutability": "nonpayable",
            "type": "constructor"
        },
        {
            "anonymous": false,
            "inputs": [
                {
                    "indexed": true,
                    "internalType": "address",
                    "name": "owner",
                    "type": "address"
                },
                {
                    "indexed": true,
                    "internalType": "address",
                    "name": "approved",
                    "type": "address"
                },
                {
                    "indexed": true,
                    "internalType": "uint256",
                    "name": "tokenId",
                    "type": "uint256"
                }
            ],
            "name": "Approval",
            "type": "event"
        },
        {
            "anonymous": false,
            "inputs": [
                {
                    "indexed": true,
                    "internalType": "address",
                    "name": "owner",
                    "type": "address"
                },
                {
                    "indexed": true,
                    "internalType": "address",
                    "name": "operator",
                    "type": "address"
                },
                {
                    "indexed": false,
                    "internalType": "bool",
                    "name": "approved",
                    "type": "bool"
                }
            ],
            "name": "ApprovalForAll",
            "type": "event"
        },
        {
            "anonymous": false,
            "inputs": [
                {
                    "indexed": true,
                    "internalType": "address",
                    "name": "previousOwner",
                    "type": "address"
                },
                {
                    "indexed": true,
                    "internalType": "address",
                    "name": "newOwner",
                    "type": "address"
                }
            ],
            "name": "OwnershipTransferred",
            "type": "event"
        },
        {
            "anonymous": false,
            "inputs": [
                {
                    "indexed": true,
                    "internalType": "address",
                    "name": "from",
                    "type": "address"
                },
                {
                    "indexed": true,
                    "internalType": "address",
                    "name": "to",
                    "type": "address"
                },
                {
                    "indexed": true,
                    "internalType": "uint256",
                    "name": "tokenId",
                    "type": "uint256"
                }
            ],
            "name": "Transfer",
            "type": "event"
        },
        {
            "inputs": [
                {
                    "internalType": "address",
                    "name": "to",
                    "type": "address"
                },
                {
                    "internalType": "uint256",
                    "name": "tokenId",
                    "type": "uint256"
                }
            ],
            "name": "approve",
            "outputs": [],
            "stateMutability": "nonpayable",
            "type": "function"
        },
        {
            "inputs": [
                {
                    "internalType": "address",
                    "name": "owner",
                    "type": "address"
                }
            ],
            "name": "balanceOf",
            "outputs": [
                {
                    "internalType": "uint256",
                    "name": "",
                    "type": "uint256"
                }
            ],
            "stateMutability": "view",
            "type": "function"
        },
        {
            "inputs": [
                {
                    "internalType": "uint256",
                    "name": "tokenId",
                    "type": "uint256"
                }
            ],
            "name": "getApproved",
            "outputs": [
                {
                    "internalType": "address",
                    "name": "",
                    "type": "address"
                }
            ],
            "stateMutability": "view",
            "type": "function"
        },
        {
            "inputs": [
                {
                    "internalType": "address",
                    "name": "_owner",
                    "type": "address"
                },
                {
                    "internalType": "address",
                    "name": "_operator",
                    "type": "address"
                }
            ],
            "name": "isApprovedForAll",
            "outputs": [
                {
                    "internalType": "bool",
                    "name": "isOperator",
                    "type": "bool"
                }
            ],
            "stateMutability": "view",
            "type": "function"
        },
        {
            "inputs": [],
            "name": "name",
            "outputs": [
                {
                    "internalType": "string",
                    "name": "",
                    "type": "string"
                }
            ],
            "stateMutability": "view",
            "type": "function"
        },
        {
            "inputs": [],
            "name": "owner",
            "outputs": [
                {
                    "internalType": "address",
                    "name": "",
                    "type": "address"
                }
            ],
            "stateMutability": "view",
            "type": "function"
        },
        {
            "inputs": [
                {
                    "internalType": "uint256",
                    "name": "tokenId",
                    "type": "uint256"
                }
            ],
            "name": "ownerOf",
            "outputs": [
                {
                    "internalType": "address",
                    "name": "",
                    "type": "address"
                }
            ],
            "stateMutability": "view",
            "type": "function"
        },
        {
            "inputs": [
                {
                    "internalType": "string",
                    "name": "metadataURI",
                    "type": "string"
                }
            ],
            "name": "payToMint",
            "outputs": [],
            "stateMutability": "payable",
            "type": "function"
        },
        {
            "inputs": [],
            "name": "renounceOwnership",
            "outputs": [],
            "stateMutability": "nonpayable",
            "type": "function"
        },
        {
            "inputs": [
                {
                    "internalType": "address",
                    "name": "from",
                    "type": "address"
                },
                {
                    "internalType": "address",
                    "name": "to",
                    "type": "address"
                },
                {
                    "internalType": "uint256",
                    "name": "tokenId",
                    "type": "uint256"
                }
            ],
            "name": "safeTransferFrom",
            "outputs": [],
            "stateMutability": "nonpayable",
            "type": "function"
        },
        {
            "inputs": [
                {
                    "internalType": "address",
                    "name": "from",
                    "type": "address"
                },
                {
                    "internalType": "address",
                    "name": "to",
                    "type": "address"
                },
                {
                    "internalType": "uint256",
                    "name": "tokenId",
                    "type": "uint256"
                },
                {
                    "internalType": "bytes",
                    "name": "_data",
                    "type": "bytes"
                }
            ],
            "name": "safeTransferFrom",
            "outputs": [],
            "stateMutability": "nonpayable",
            "type": "function"
        },
        {
            "inputs": [
                {
                    "internalType": "address",
                    "name": "operator",
                    "type": "address"
                },
                {
                    "internalType": "bool",
                    "name": "approved",
                    "type": "bool"
                }
            ],
            "name": "setApprovalForAll",
            "outputs": [],
            "stateMutability": "nonpayable",
            "type": "function"
        },
        {
            "inputs": [
                {
                    "internalType": "bytes4",
                    "name": "interfaceId",
                    "type": "bytes4"
                }
            ],
            "name": "supportsInterface",
            "outputs": [
                {
                    "internalType": "bool",
                    "name": "",
                    "type": "bool"
                }
            ],
            "stateMutability": "view",
            "type": "function"
        },
        {
            "inputs": [],
            "name": "symbol",
            "outputs": [
                {
                    "internalType": "string",
                    "name": "",
                    "type": "string"
                }
            ],
            "stateMutability": "view",
            "type": "function"
        },
        {
            "inputs": [],
            "name": "tokenCounter",
            "outputs": [
                {
                    "internalType": "uint256",
                    "name": "",
                    "type": "uint256"
                }
            ],
            "stateMutability": "view",
            "type": "function"
        },
        {
            "inputs": [
                {
                    "internalType": "uint256",
                    "name": "tokenId",
                    "type": "uint256"
                }
            ],
            "name": "tokenURI",
            "outputs": [
                {
                    "internalType": "string",
                    "name": "",
                    "type": "string"
                }
            ],
            "stateMutability": "view",
            "type": "function"
        },
        {
            "inputs": [
                {
                    "internalType": "address",
                    "name": "from",
                    "type": "address"
                },
                {
                    "internalType": "address",
                    "name": "to",
                    "type": "address"
                },
                {
                    "internalType": "uint256",
                    "name": "tokenId",
                    "type": "uint256"
                }
            ],
            "name": "transferFrom",
            "outputs": [],
            "stateMutability": "nonpayable",
            "type": "function"
        },
        {
            "inputs": [
                {
                    "internalType": "address",
                    "name": "newOwner",
                    "type": "address"
                }
            ],
            "name": "transferOwnership",
            "outputs": [],
            "stateMutability": "nonpayable",
            "type": "function"
        },
        {
            "inputs": [],
            "name": "withdraw",
            "outputs": [],
            "stateMutability": "nonpayable",
            "type": "function"
        }
    ],
    "bytecode": "0x60806040523480156200001157600080fd5b506040518060400160405280600381526020017f4e465400000000000000000000000000000000000000000000000000000000008152506040518060400160405280600381526020017f4e46540000000000000000000000000000000000000000000000000000000000815250816000908051906020019062000096929190620001ae565b508060019080519060200190620000af929190620001ae565b505050620000d2620000c6620000e060201b60201c565b620000e860201b60201c565b6000600781905550620002c3565b600033905090565b6000600660009054906101000a900473ffffffffffffffffffffffffffffffffffffffff16905081600660006101000a81548173ffffffffffffffffffffffffffffffffffffffff021916908373ffffffffffffffffffffffffffffffffffffffff1602179055508173ffffffffffffffffffffffffffffffffffffffff168173ffffffffffffffffffffffffffffffffffffffff167f8be0079c531659141344cd1fd0a4f28419497f9722a3daafe3b4186f6b6457e060405160405180910390a35050565b828054620001bc906200025e565b90600052602060002090601f016020900481019282620001e057600085556200022c565b82601f10620001fb57805160ff19168380011785556200022c565b828001600101855582156200022c579182015b828111156200022b5782518255916020019190600101906200020e565b5b5090506200023b91906200023f565b5090565b5b808211156200025a57600081600090555060010162000240565b5090565b600060028204905060018216806200027757607f821691505b602082108114156200028e576200028d62000294565b5b50919050565b7f4e487b7100000000000000000000000000000000000000000000000000000000600052602260045260246000fd5b61314a80620002d36000396000f3fe6080604052600436106101145760003560e01c806370a08231116100a0578063b88d4fde11610064578063b88d4fde1461037c578063c87b56dd146103a5578063d082e381146103e2578063e985e9c51461040d578063f2fde38b1461044a57610114565b806370a08231146102a9578063715018a6146102e65780638da5cb5b146102fd57806395d89b4114610328578063a22cb4651461035357610114565b806323b872dd116100e757806323b872dd146101e75780633ccfd60b1461021057806342842e0e14610227578063537efe31146102505780636352211e1461026c57610114565b806301ffc9a71461011957806306fdde0314610156578063081812fc14610181578063095ea7b3146101be575b600080fd5b34801561012557600080fd5b50610140600480360381019061013b919061203b565b610473565b60405161014d919061253a565b60405180910390f35b34801561016257600080fd5b5061016b610555565b6040516101789190612555565b60405180910390f35b34801561018d57600080fd5b506101a860048036038101906101a391906120ce565b6105e7565b6040516101b591906124d3565b60405180910390f35b3480156101ca57600080fd5b506101e560048036038101906101e09190611fff565b61066c565b005b3480156101f357600080fd5b5061020e60048036038101906102099190611ef9565b610784565b005b34801561021c57600080fd5b506102256107e4565b005b34801561023357600080fd5b5061024e60048036038101906102499190611ef9565b610916565b005b61026a6004803603810190610265919061208d565b610936565b005b34801561027857600080fd5b50610293600480360381019061028e91906120ce565b610a50565b6040516102a091906124d3565b60405180910390f35b3480156102b557600080fd5b506102d060048036038101906102cb9190611e94565b610b02565b6040516102dd91906127d7565b60405180910390f35b3480156102f257600080fd5b506102fb610bba565b005b34801561030957600080fd5b50610312610c42565b60405161031f91906124d3565b60405180910390f35b34801561033457600080fd5b5061033d610c6c565b60405161034a9190612555565b60405180910390f35b34801561035f57600080fd5b5061037a60048036038101906103759190611fc3565b610cfe565b005b34801561038857600080fd5b506103a3600480360381019061039e9190611f48565b610d14565b005b3480156103b157600080fd5b506103cc60048036038101906103c791906120ce565b610d76565b6040516103d99190612555565b60405180910390f35b3480156103ee57600080fd5b506103f7610e1d565b60405161040491906127d7565b60405180910390f35b34801561041957600080fd5b50610434600480360381019061042f9190611ebd565b610e23565b604051610441919061253a565b60405180910390f35b34801561045657600080fd5b50610471600480360381019061046c9190611e94565b610e89565b005b60007f80ac58cd000000000000000000000000000000000000000000000000000000007bffffffffffffffffffffffffffffffffffffffffffffffffffffffff1916827bffffffffffffffffffffffffffffffffffffffffffffffffffffffff1916148061053e57507f5b5e139f000000000000000000000000000000000000000000000000000000007bffffffffffffffffffffffffffffffffffffffffffffffffffffffff1916827bffffffffffffffffffffffffffffffffffffffffffffffffffffffff1916145b8061054e575061054d82610f81565b5b9050919050565b60606000805461056490612a38565b80601f016020809104026020016040519081016040528092919081815260200182805461059090612a38565b80156105dd5780601f106105b2576101008083540402835291602001916105dd565b820191906000526020600020905b8154815290600101906020018083116105c057829003601f168201915b5050505050905090565b60006105f282610feb565b610631576040517f08c379a0000000000000000000000000000000000000000000000000000000008152600401610628906126d7565b60405180910390fd5b6004600083815260200190815260200160002060009054906101000a900473ffffffffffffffffffffffffffffffffffffffff169050919050565b600061067782610a50565b90508073ffffffffffffffffffffffffffffffffffffffff168373ffffffffffffffffffffffffffffffffffffffff1614156106e8576040517f08c379a00000000000000000000000000000000000000000000000000000000081526004016106df90612737565b60405180910390fd5b8073ffffffffffffffffffffffffffffffffffffffff16610707611057565b73ffffffffffffffffffffffffffffffffffffffff161480610736575061073581610730611057565b610e23565b5b610775576040517f08c379a000000000000000000000000000000000000000000000000000000000815260040161076c90612657565b60405180910390fd5b61077f838361105f565b505050565b61079561078f611057565b82611118565b6107d4576040517f08c379a00000000000000000000000000000000000000000000000000000000081526004016107cb90612757565b60405180910390fd5b6107df8383836111f6565b505050565b6107ec611057565b73ffffffffffffffffffffffffffffffffffffffff1661080a610c42565b73ffffffffffffffffffffffffffffffffffffffff1614610860576040517f08c379a0000000000000000000000000000000000000000000000000000000008152600401610857906126f7565b60405180910390fd5b600061086a610c42565b73ffffffffffffffffffffffffffffffffffffffff164760405161088d906124be565b60006040518083038185875af1925050503d80600081146108ca576040519150601f19603f3d011682016040523d82523d6000602084013e6108cf565b606091505b5050905080610913576040517f08c379a000000000000000000000000000000000000000000000000000000000815260040161090a90612797565b60405180910390fd5b50565b61093183838360405180602001604052806000815250610d14565b505050565b60016008826040516109489190612483565b908152602001604051809103902060009054906101000a900460ff1660ff1614156109a8576040517f08c379a000000000000000000000000000000000000000000000000000000000815260040161099f90612777565b60405180910390fd5b655af3107a40003410156109f1576040517f08c379a00000000000000000000000000000000000000000000000000000000081526004016109e8906127b7565b60405180910390fd5b6109fd3360075461145d565b60076000815480929190610a1090612a9b565b91905055506001600882604051610a279190612483565b908152602001604051809103902060006101000a81548160ff021916908360ff16021790555050565b6000806002600084815260200190815260200160002060009054906101000a900473ffffffffffffffffffffffffffffffffffffffff169050600073ffffffffffffffffffffffffffffffffffffffff168173ffffffffffffffffffffffffffffffffffffffff161415610af9576040517f08c379a0000000000000000000000000000000000000000000000000000000008152600401610af090612697565b60405180910390fd5b80915050919050565b60008073ffffffffffffffffffffffffffffffffffffffff168273ffffffffffffffffffffffffffffffffffffffff161415610b73576040517f08c379a0000000000000000000000000000000000000000000000000000000008152600401610b6a90612677565b60405180910390fd5b600360008373ffffffffffffffffffffffffffffffffffffffff1673ffffffffffffffffffffffffffffffffffffffff168152602001908152602001600020549050919050565b610bc2611057565b73ffffffffffffffffffffffffffffffffffffffff16610be0610c42565b73ffffffffffffffffffffffffffffffffffffffff1614610c36576040517f08c379a0000000000000000000000000000000000000000000000000000000008152600401610c2d906126f7565b60405180910390fd5b610c40600061147b565b565b6000600660009054906101000a900473ffffffffffffffffffffffffffffffffffffffff16905090565b606060018054610c7b90612a38565b80601f0160208091040260200160405190810160405280929190818152602001828054610ca790612a38565b8015610cf45780601f10610cc957610100808354040283529160200191610cf4565b820191906000526020600020905b815481529060010190602001808311610cd757829003601f168201915b5050505050905090565b610d10610d09611057565b8383611541565b5050565b610d25610d1f611057565b83611118565b610d64576040517f08c379a0000000000000000000000000000000000000000000000000000000008152600401610d5b90612757565b60405180910390fd5b610d70848484846116ae565b50505050565b6060610d8182610feb565b610dc0576040517f08c379a0000000000000000000000000000000000000000000000000000000008152600401610db790612717565b60405180910390fd5b6000610dca61170a565b90506000815111610dea5760405180602001604052806000815250610e15565b80610df484611721565b604051602001610e0592919061249a565b6040516020818303038152906040525b915050919050565b60075481565b60007358807bad0b376efc12f5ad86aac70e78ed67deae73ffffffffffffffffffffffffffffffffffffffff168273ffffffffffffffffffffffffffffffffffffffff161415610e765760019050610e83565b610e8083836118ce565b90505b92915050565b610e91611057565b73ffffffffffffffffffffffffffffffffffffffff16610eaf610c42565b73ffffffffffffffffffffffffffffffffffffffff1614610f05576040517f08c379a0000000000000000000000000000000000000000000000000000000008152600401610efc906126f7565b60405180910390fd5b600073ffffffffffffffffffffffffffffffffffffffff168173ffffffffffffffffffffffffffffffffffffffff161415610f75576040517f08c379a0000000000000000000000000000000000000000000000000000000008152600401610f6c90612597565b60405180910390fd5b610f7e8161147b565b50565b60007f01ffc9a7000000000000000000000000000000000000000000000000000000007bffffffffffffffffffffffffffffffffffffffffffffffffffffffff1916827bffffffffffffffffffffffffffffffffffffffffffffffffffffffff1916149050919050565b60008073ffffffffffffffffffffffffffffffffffffffff166002600084815260200190815260200160002060009054906101000a900473ffffffffffffffffffffffffffffffffffffffff1673ffffffffffffffffffffffffffffffffffffffff1614159050919050565b600033905090565b816004600083815260200190815260200160002060006101000a81548173ffffffffffffffffffffffffffffffffffffffff021916908373ffffffffffffffffffffffffffffffffffffffff160217905550808273ffffffffffffffffffffffffffffffffffffffff166110d283610a50565b73ffffffffffffffffffffffffffffffffffffffff167f8c5be1e5ebec7d5bd14f71427d1e84f3dd0314c0f7b2291e5b200ac8c7c3b92560405160405180910390a45050565b600061112382610feb565b611162576040517f08c379a000000000000000000000000000000000000000000000000000000000815260040161115990612637565b60405180910390fd5b600061116d83610a50565b90508073ffffffffffffffffffffffffffffffffffffffff168473ffffffffffffffffffffffffffffffffffffffff1614806111af57506111ae8185610e23565b5b806111ed57508373ffffffffffffffffffffffffffffffffffffffff166111d5846105e7565b73ffffffffffffffffffffffffffffffffffffffff16145b91505092915050565b8273ffffffffffffffffffffffffffffffffffffffff1661121682610a50565b73ffffffffffffffffffffffffffffffffffffffff161461126c576040517f08c379a0000000000000000000000000000000000000000000000000000000008152600401611263906125b7565b60405180910390fd5b600073ffffffffffffffffffffffffffffffffffffffff168273ffffffffffffffffffffffffffffffffffffffff1614156112dc576040517f08c379a00000000000000000000000000000000000000000000000000000000081526004016112d3906125f7565b60405180910390fd5b6112e7838383611962565b6112f260008261105f565b6001600360008573ffffffffffffffffffffffffffffffffffffffff1673ffffffffffffffffffffffffffffffffffffffff1681526020019081526020016000206000828254611342919061294e565b925050819055506001600360008473ffffffffffffffffffffffffffffffffffffffff1673ffffffffffffffffffffffffffffffffffffffff168152602001908152602001600020600082825461139991906128c7565b92505081905550816002600083815260200190815260200160002060006101000a81548173ffffffffffffffffffffffffffffffffffffffff021916908373ffffffffffffffffffffffffffffffffffffffff160217905550808273ffffffffffffffffffffffffffffffffffffffff168473ffffffffffffffffffffffffffffffffffffffff167fddf252ad1be2c89b69c2b068fc378daa952ba7f163c4a11628f55a4df523b3ef60405160405180910390a4611458838383611967565b505050565b61147782826040518060200160405280600081525061196c565b5050565b6000600660009054906101000a900473ffffffffffffffffffffffffffffffffffffffff16905081600660006101000a81548173ffffffffffffffffffffffffffffffffffffffff021916908373ffffffffffffffffffffffffffffffffffffffff1602179055508173ffffffffffffffffffffffffffffffffffffffff168173ffffffffffffffffffffffffffffffffffffffff167f8be0079c531659141344cd1fd0a4f28419497f9722a3daafe3b4186f6b6457e060405160405180910390a35050565b8173ffffffffffffffffffffffffffffffffffffffff168373ffffffffffffffffffffffffffffffffffffffff1614156115b0576040517f08c379a00000000000000000000000000000000000000000000000000000000081526004016115a790612617565b60405180910390fd5b80600560008573ffffffffffffffffffffffffffffffffffffffff1673ffffffffffffffffffffffffffffffffffffffff16815260200190815260200160002060008473ffffffffffffffffffffffffffffffffffffffff1673ffffffffffffffffffffffffffffffffffffffff16815260200190815260200160002060006101000a81548160ff0219169083151502179055508173ffffffffffffffffffffffffffffffffffffffff168373ffffffffffffffffffffffffffffffffffffffff167f17307eab39ab6107e8899845ad3d59bd9653f200f220920489ca2b5937696c31836040516116a1919061253a565b60405180910390a3505050565b6116b98484846111f6565b6116c5848484846119c7565b611704576040517f08c379a00000000000000000000000000000000000000000000000000000000081526004016116fb90612577565b60405180910390fd5b50505050565b606060405180602001604052806000815250905090565b60606000821415611769576040518060400160405280600181526020017f300000000000000000000000000000000000000000000000000000000000000081525090506118c9565b600082905060005b6000821461179b57808061178490612a9b565b915050600a82611794919061291d565b9150611771565b60008167ffffffffffffffff8111156117dd577f4e487b7100000000000000000000000000000000000000000000000000000000600052604160045260246000fd5b6040519080825280601f01601f19166020018201604052801561180f5781602001600182028036833780820191505090505b5090505b600085146118c257600182611828919061294e565b9150600a856118379190612ae4565b603061184391906128c7565b60f81b81838151811061187f577f4e487b7100000000000000000000000000000000000000000000000000000000600052603260045260246000fd5b60200101907effffffffffffffffffffffffffffffffffffffffffffffffffffffffffffff1916908160001a905350600a856118bb919061291d565b9450611813565b8093505050505b919050565b6000600560008473ffffffffffffffffffffffffffffffffffffffff1673ffffffffffffffffffffffffffffffffffffffff16815260200190815260200160002060008373ffffffffffffffffffffffffffffffffffffffff1673ffffffffffffffffffffffffffffffffffffffff16815260200190815260200160002060009054906101000a900460ff16905092915050565b505050565b505050565b6119768383611b5e565b61198360008484846119c7565b6119c2576040517f08c379a00000000000000000000000000000000000000000000000000000000081526004016119b990612577565b60405180910390fd5b505050565b60006119e88473ffffffffffffffffffffffffffffffffffffffff16611d38565b15611b51578373ffffffffffffffffffffffffffffffffffffffff1663150b7a02611a11611057565b8786866040518563ffffffff1660e01b8152600401611a3394939291906124ee565b602060405180830381600087803b158015611a4d57600080fd5b505af1925050508015611a7e57506040513d601f19601f82011682018060405250810190611a7b9190612064565b60015b611b01573d8060008114611aae576040519150601f19603f3d011682016040523d82523d6000602084013e611ab3565b606091505b50600081511415611af9576040517f08c379a0000000000000000000000000000000000000000000000000000000008152600401611af090612577565b60405180910390fd5b805181602001fd5b63150b7a0260e01b7bffffffffffffffffffffffffffffffffffffffffffffffffffffffff1916817bffffffffffffffffffffffffffffffffffffffffffffffffffffffff191614915050611b56565b600190505b949350505050565b600073ffffffffffffffffffffffffffffffffffffffff168273ffffffffffffffffffffffffffffffffffffffff161415611bce576040517f08c379a0000000000000000000000000000000000000000000000000000000008152600401611bc5906126b7565b60405180910390fd5b611bd781610feb565b15611c17576040517f08c379a0000000000000000000000000000000000000000000000000000000008152600401611c0e906125d7565b60405180910390fd5b611c2360008383611962565b6001600360008473ffffffffffffffffffffffffffffffffffffffff1673ffffffffffffffffffffffffffffffffffffffff1681526020019081526020016000206000828254611c7391906128c7565b92505081905550816002600083815260200190815260200160002060006101000a81548173ffffffffffffffffffffffffffffffffffffffff021916908373ffffffffffffffffffffffffffffffffffffffff160217905550808273ffffffffffffffffffffffffffffffffffffffff16600073ffffffffffffffffffffffffffffffffffffffff167fddf252ad1be2c89b69c2b068fc378daa952ba7f163c4a11628f55a4df523b3ef60405160405180910390a4611d3460008383611967565b5050565b6000808273ffffffffffffffffffffffffffffffffffffffff163b119050919050565b6000611d6e611d6984612817565b6127f2565b905082815260208101848484011115611d8657600080fd5b611d918482856129f6565b509392505050565b6000611dac611da784612848565b6127f2565b905082815260208101848484011115611dc457600080fd5b611dcf8482856129f6565b509392505050565b600081359050611de6816130b8565b92915050565b600081359050611dfb816130cf565b92915050565b600081359050611e10816130e6565b92915050565b600081519050611e25816130e6565b92915050565b600082601f830112611e3c57600080fd5b8135611e4c848260208601611d5b565b91505092915050565b600082601f830112611e6657600080fd5b8135611e76848260208601611d99565b91505092915050565b600081359050611e8e816130fd565b92915050565b600060208284031215611ea657600080fd5b6000611eb484828501611dd7565b91505092915050565b60008060408385031215611ed057600080fd5b6000611ede85828601611dd7565b9250506020611eef85828601611dd7565b9150509250929050565b600080600060608486031215611f0e57600080fd5b6000611f1c86828701611dd7565b9350506020611f2d86828701611dd7565b9250506040611f3e86828701611e7f565b9150509250925092565b60008060008060808587031215611f5e57600080fd5b6000611f6c87828801611dd7565b9450506020611f7d87828801611dd7565b9350506040611f8e87828801611e7f565b925050606085013567ffffffffffffffff811115611fab57600080fd5b611fb787828801611e2b565b91505092959194509250565b60008060408385031215611fd657600080fd5b6000611fe485828601611dd7565b9250506020611ff585828601611dec565b9150509250929050565b6000806040838503121561201257600080fd5b600061202085828601611dd7565b925050602061203185828601611e7f565b9150509250929050565b60006020828403121561204d57600080fd5b600061205b84828501611e01565b91505092915050565b60006020828403121561207657600080fd5b600061208484828501611e16565b91505092915050565b60006020828403121561209f57600080fd5b600082013567ffffffffffffffff8111156120b957600080fd5b6120c584828501611e55565b91505092915050565b6000602082840312156120e057600080fd5b60006120ee84828501611e7f565b91505092915050565b61210081612982565b82525050565b61210f81612994565b82525050565b600061212082612879565b61212a818561288f565b935061213a818560208601612a05565b61214381612bd1565b840191505092915050565b600061215982612884565b61216381856128ab565b9350612173818560208601612a05565b61217c81612bd1565b840191505092915050565b600061219282612884565b61219c81856128bc565b93506121ac818560208601612a05565b80840191505092915050565b60006121c56032836128ab565b91506121d082612be2565b604082019050919050565b60006121e86026836128ab565b91506121f382612c31565b604082019050919050565b600061220b6025836128ab565b915061221682612c80565b604082019050919050565b600061222e601c836128ab565b915061223982612ccf565b602082019050919050565b60006122516024836128ab565b915061225c82612cf8565b604082019050919050565b60006122746019836128ab565b915061227f82612d47565b602082019050919050565b6000612297602c836128ab565b91506122a282612d70565b604082019050919050565b60006122ba6038836128ab565b91506122c582612dbf565b604082019050919050565b60006122dd602a836128ab565b91506122e882612e0e565b604082019050919050565b60006123006029836128ab565b915061230b82612e5d565b604082019050919050565b60006123236020836128ab565b915061232e82612eac565b602082019050919050565b6000612346602c836128ab565b915061235182612ed5565b604082019050919050565b60006123696020836128ab565b915061237482612f24565b602082019050919050565b600061238c602f836128ab565b915061239782612f4d565b604082019050919050565b60006123af6021836128ab565b91506123ba82612f9c565b604082019050919050565b60006123d26000836128a0565b91506123dd82612feb565b600082019050919050565b60006123f56031836128ab565b915061240082612fee565b604082019050919050565b60006124186013836128ab565b91506124238261303d565b602082019050919050565b600061243b600f836128ab565b915061244682613066565b602082019050919050565b600061245e600f836128ab565b91506124698261308f565b602082019050919050565b61247d816129ec565b82525050565b600061248f8284612187565b915081905092915050565b60006124a68285612187565b91506124b28284612187565b91508190509392505050565b60006124c9826123c5565b9150819050919050565b60006020820190506124e860008301846120f7565b92915050565b600060808201905061250360008301876120f7565b61251060208301866120f7565b61251d6040830185612474565b818103606083015261252f8184612115565b905095945050505050565b600060208201905061254f6000830184612106565b92915050565b6000602082019050818103600083015261256f818461214e565b905092915050565b60006020820190508181036000830152612590816121b8565b9050919050565b600060208201905081810360008301526125b0816121db565b9050919050565b600060208201905081810360008301526125d0816121fe565b9050919050565b600060208201905081810360008301526125f081612221565b9050919050565b6000602082019050818103600083015261261081612244565b9050919050565b6000602082019050818103600083015261263081612267565b9050919050565b600060208201905081810360008301526126508161228a565b9050919050565b60006020820190508181036000830152612670816122ad565b9050919050565b60006020820190508181036000830152612690816122d0565b9050919050565b600060208201905081810360008301526126b0816122f3565b9050919050565b600060208201905081810360008301526126d081612316565b9050919050565b600060208201905081810360008301526126f081612339565b9050919050565b600060208201905081810360008301526127108161235c565b9050919050565b600060208201905081810360008301526127308161237f565b9050919050565b60006020820190508181036000830152612750816123a2565b9050919050565b60006020820190508181036000830152612770816123e8565b9050919050565b600060208201905081810360008301526127908161240b565b9050919050565b600060208201905081810360008301526127b08161242e565b9050919050565b600060208201905081810360008301526127d081612451565b9050919050565b60006020820190506127ec6000830184612474565b92915050565b60006127fc61280d565b90506128088282612a6a565b919050565b6000604051905090565b600067ffffffffffffffff82111561283257612831612ba2565b5b61283b82612bd1565b9050602081019050919050565b600067ffffffffffffffff82111561286357612862612ba2565b5b61286c82612bd1565b9050602081019050919050565b600081519050919050565b600081519050919050565b600082825260208201905092915050565b600081905092915050565b600082825260208201905092915050565b600081905092915050565b60006128d2826129ec565b91506128dd836129ec565b9250827fffffffffffffffffffffffffffffffffffffffffffffffffffffffffffffffff0382111561291257612911612b15565b5b828201905092915050565b6000612928826129ec565b9150612933836129ec565b92508261294357612942612b44565b5b828204905092915050565b6000612959826129ec565b9150612964836129ec565b92508282101561297757612976612b15565b5b828203905092915050565b600061298d826129cc565b9050919050565b60008115159050919050565b60007fffffffff0000000000000000000000000000000000000000000000000000000082169050919050565b600073ffffffffffffffffffffffffffffffffffffffff82169050919050565b6000819050919050565b82818337600083830152505050565b60005b83811015612a23578082015181840152602081019050612a08565b83811115612a32576000848401525b50505050565b60006002820490506001821680612a5057607f821691505b60208210811415612a6457612a63612b73565b5b50919050565b612a7382612bd1565b810181811067ffffffffffffffff82111715612a9257612a91612ba2565b5b80604052505050565b6000612aa6826129ec565b91507fffffffffffffffffffffffffffffffffffffffffffffffffffffffffffffffff821415612ad957612ad8612b15565b5b600182019050919050565b6000612aef826129ec565b9150612afa836129ec565b925082612b0a57612b09612b44565b5b828206905092915050565b7f4e487b7100000000000000000000000000000000000000000000000000000000600052601160045260246000fd5b7f4e487b7100000000000000000000000000000000000000000000000000000000600052601260045260246000fd5b7f4e487b7100000000000000000000000000000000000000000000000000000000600052602260045260246000fd5b7f4e487b7100000000000000000000000000000000000000000000000000000000600052604160045260246000fd5b6000601f19601f8301169050919050565b7f4552433732313a207472616e7366657220746f206e6f6e20455243373231526560008201527f63656976657220696d706c656d656e7465720000000000000000000000000000602082015250565b7f4f776e61626c653a206e6577206f776e657220697320746865207a65726f206160008201527f6464726573730000000000000000000000000000000000000000000000000000602082015250565b7f4552433732313a207472616e736665722066726f6d20696e636f72726563742060008201527f6f776e6572000000000000000000000000000000000000000000000000000000602082015250565b7f4552433732313a20746f6b656e20616c7265616479206d696e74656400000000600082015250565b7f4552433732313a207472616e7366657220746f20746865207a65726f2061646460008201527f7265737300000000000000000000000000000000000000000000000000000000602082015250565b7f4552433732313a20617070726f766520746f2063616c6c657200000000000000600082015250565b7f4552433732313a206f70657261746f7220717565727920666f72206e6f6e657860008201527f697374656e7420746f6b656e0000000000000000000000000000000000000000602082015250565b7f4552433732313a20617070726f76652063616c6c6572206973206e6f74206f7760008201527f6e6572206e6f7220617070726f76656420666f7220616c6c0000000000000000602082015250565b7f4552433732313a2062616c616e636520717565727920666f7220746865207a6560008201527f726f206164647265737300000000000000000000000000000000000000000000602082015250565b7f4552433732313a206f776e657220717565727920666f72206e6f6e657869737460008201527f656e7420746f6b656e0000000000000000000000000000000000000000000000602082015250565b7f4552433732313a206d696e7420746f20746865207a65726f2061646472657373600082015250565b7f4552433732313a20617070726f76656420717565727920666f72206e6f6e657860008201527f697374656e7420746f6b656e0000000000000000000000000000000000000000602082015250565b7f4f776e61626c653a2063616c6c6572206973206e6f7420746865206f776e6572600082015250565b7f4552433732314d657461646174613a2055524920717565727920666f72206e6f60008201527f6e6578697374656e7420746f6b656e0000000000000000000000000000000000602082015250565b7f4552433732313a20617070726f76616c20746f2063757272656e74206f776e6560008201527f7200000000000000000000000000000000000000000000000000000000000000602082015250565b50565b7f4552433732313a207472616e736665722063616c6c6572206973206e6f74206f60008201527f776e6572206e6f7220617070726f766564000000000000000000000000000000602082015250565b7f4e465420616c7265616479206d696e7465642100000000000000000000000000600082015250565b7f7769746864726177206661696c65640000000000000000000000000000000000600082015250565b7f4e65656420746f20706179207570210000000000000000000000000000000000600082015250565b6130c181612982565b81146130cc57600080fd5b50565b6130d881612994565b81146130e357600080fd5b50565b6130ef816129a0565b81146130fa57600080fd5b50565b613106816129ec565b811461311157600080fd5b5056fea26469706673582212205e50a81a698f59b747aabb94a49f52690eb197e818c9a45b4e3e05efcc1109e364736f6c63430008040033",
    "linkReferences": {},
    "deployedLinkReferences": {}
}